:100000000C9438000C9462010C9462010C9462010F
:100010000C9462010C9462010C9462010C946201D4
:100020000C9462010C9462010C9462010C946201C4
:100030000C9462010C9462010C9462010C946201B4
:100040000C9462010C9462010C9462010C946201A4
:100050000C9462010C9462010C9462010C94620194
:100060000C9462010C946201010001110002D200A3
:1000700011241FBECFEFD8E0DEBFCDBFE8E6F0E031
:1000800040E017C0B591A59135912591059107FDE7
:100090000CC095918591EF01F92FE82F05900D92F5
:1000A000A217B307D9F7FE0104C01D92A217B30728
:1000B000E1F7EF36F40731F70E941D010C94470178
:0400C000F894FFCFE2
:1000C4006FEF81E00E94520141E060E082E00E9413
:1000D400880041E061E082E00E94880041E062E043
:1000E40082E00E9488008FE097E20197F1F700C058
:1000F400000088E30E94E3008CE00E94E30081E0BA
:0C0104000E94E30086E00E94E3000895E2
:10011000CF93DF93D62FC42F0E94CC00FC01C130B7
:1001200059F4218181E090E002C0880F991FDA958F
:10013000E2F7822B81830BC0918121E030E002C085
:10014000220F331FDA95E2F7209529232183DF91CF
:04015000CF910895AE
:10015400CF93DF93D62FC42F0E94CC00FC01C13073
:1001640059F4228181E090E002C0880F991FDA954A
:10017400E2F7822B82830BC0928121E030E002C03F
:10018400220F331FDA95E2F7209529232283DF918A
:04019400CF9108956A
:10019800813031F088F0823031F0833039F009C095
:1001A80083E290E0089586E290E008958FE190E080
:0E01B800089580E090E0089589E390E00895B6
:1001C600CF93C82F40E060E082E00E94AA0040E0A2
:1001D60061E082E00E94AA006C2F81E00E945A0131
:0801E6000E940B01CF91089566
:1001EE00CF93C82F41E060E082E00E94AA0040E079
:1001FE0061E082E00E94AA006C2F81E00E945A0109
:08020E000E940B01CF9108953D
:1002160041E062E082E00E94AA0000C040E062E0A5
:1002260082E00E94AA0083EF91E00197F1F700C0F7
:040236000000089527
:10023A000E94620080E091E00E942C0160E081E06F
:0E024A000E943B0186E091E00E942C01FFCF54
:10025800CF93DF93EC018881882331F021960E94A7
:0E026800F70089918111FBCFDF91CF910895AE
:10027600811105C080E8860F0E94E300089580EC96
:08028600860F0E94E3000895B9
:10028E00EC010E9467010E946601CE010E94680186
:06029E00CE010E94640184
:1002A400CF93C62F0E94CC00FC01C183CF91089547
:1002B400CF93C62F0E94CC00FC01C283CF91089536
:0402C4000C94000096
:0402C8000E94600030
:0202CC00089593
:0202CE00089591
:0202D00008958F
:1002D20048656C6C6F0041546D656761333238500C
:0102E200001B
:00000001FF
